:100F3C000A128A11A12F0317831688018901031342
:100F4C008312850186018701880189012030840084
:100F5C0003138316FF30860085018701FF3088005C
:100F6C0001308900031383126400F301F5010608B4
:100F7C00F3000808F500F001F10173080319E32FE1
:100F8C0075080319E32F0918D22F7308F0070318FB
:100F9C00F10AF50BCB2FE32F751CDA2F7308F00732
:100FAC000318F10A7408F1070310F30DF40D031084
:100FBC00F50CF5080319E32FD22F70088500710882
:100FCC008700831384130608800083138417080892
:100FDC0080008317841371088000831784177008AE
:100FEC0080006F300406031DFE2F20308400BA2FC2
:040FFC00840ABA2F7A
:04400E00FC3FFF3F35
:00000001FF
