:060000000A128A11EE2B2A
:1007DC00031783168801890103138312850186018F
:1007EC008701880189012030840003138316FF30B0
:1007FC00860085018701FF308800013089000313D2
:10080C0083169500031383126400F101F001F201C9
:10081C000608F1000808F0007008031D1A2CF201FC
:10082C007108F30089140A2C09182E24091C24249D
:10083C0072088500730887003D240A2C7108F300A8
:10084C00F20170087302031C0800F300F20A272C53
:10085C00F201F3010830F4000310F10DF30D7008F0
:10086C0073020318F300F20DF40B322C080072081B
:10087C000F39F5007208F039F70073080F39F600DC
:10088C007308F039F80007308A00770EEE278000E5
:10089C00840A07308A007508EE278000840A073026
:1008AC008A00780EEE278000840A07308A007608CA
:0C08BC00EE278000840A20308400080031
:100FDC000F398207303431343234333434343534CD
:100FEC00363437343834393441344234433444346D
:040FFC0045344634FE
:04400E00FC3FFF3F35
:00000001FF
